{
  "_format": "hh-sol-artifact-1",
  "contractName": "RewardToken",
  "sourceName": "contracts/RewardToken.sol",
  "abi": [
    {
      "inputs": [],
      "stateMutability": "nonpayable",
      "type": "constructor"
    },
    {
      "inputs": [
        {
          "internalType": "address",
          "name": "spender",
          "type": "address"
        },
        {
          "internalType": "uint256",
          "name": "allowance",
          "type": "uint256"
        },
        {
          "internalType": "uint256",
          "name": "needed",
          "type": "uint256"
        }
      ],
      "name": "ERC20InsufficientAllowance",
      "type": "error"
    },
    {
      "inputs": [
        {
          "internalType": "address",
          "name": "sender",
          "type": "address"
        },
        {
          "internalType": "uint256",
          "name": "balance",
          "type": "uint256"
        },
        {
          "internalType": "uint256",
          "name": "needed",
          "type": "uint256"
        }
      ],
      "name": "ERC20InsufficientBalance",
      "type": "error"
    },
    {
      "inputs": [
        {
          "internalType": "address",
          "name": "approver",
          "type": "address"
        }
      ],
      "name": "ERC20InvalidApprover",
      "type": "error"
    },
    {
      "inputs": [
        {
          "internalType": "address",
          "name": "receiver",
          "type": "address"
        }
      ],
      "name": "ERC20InvalidReceiver",
      "type": "error"
    },
    {
      "inputs": [
        {
          "internalType": "address",
          "name": "sender",
          "type": "address"
        }
      ],
      "name": "ERC20InvalidSender",
      "type": "error"
    },
    {
      "inputs": [
        {
          "internalType": "address",
          "name": "spender",
          "type": "address"
        }
      ],
      "name": "ERC20InvalidSpender",
      "type": "error"
    },
    {
      "anonymous": false,
      "inputs": [
        {
          "indexed": true,
          "internalType": "address",
          "name": "owner",
          "type": "address"
        },
        {
          "indexed": true,
          "internalType": "address",
          "name": "spender",
          "type": "address"
        },
        {
          "indexed": false,
          "internalType": "uint256",
          "name": "value",
          "type": "uint256"
        }
      ],
      "name": "Approval",
      "type": "event"
    },
    {
      "anonymous": false,
      "inputs": [
        {
          "indexed": true,
          "internalType": "address",
          "name": "from",
          "type": "address"
        },
        {
          "indexed": true,
          "internalType": "address",
          "name": "to",
          "type": "address"
        },
        {
          "indexed": false,
          "internalType": "uint256",
          "name": "value",
          "type": "uint256"
        }
      ],
      "name": "Transfer",
      "type": "event"
    },
    {
      "inputs": [
        {
          "internalType": "address",
          "name": "owner",
          "type": "address"
        },
        {
          "internalType": "address",
          "name": "spender",
          "type": "address"
        }
      ],
      "name": "allowance",
      "outputs": [
        {
          "internalType": "uint256",
          "name": "",
          "type": "uint256"
        }
      ],
      "stateMutability": "view",
      "type": "function"
    },
    {
      "inputs": [
        {
          "internalType": "address",
          "name": "spender",
          "type": "address"
        },
        {
          "internalType": "uint256",
          "name": "value",
          "type": "uint256"
        }
      ],
      "name": "approve",
      "outputs": [
        {
          "internalType": "bool",
          "name": "",
          "type": "bool"
        }
      ],
      "stateMutability": "nonpayable",
      "type": "function"
    },
    {
      "inputs": [
        {
          "internalType": "address",
          "name": "account",
          "type": "address"
        }
      ],
      "name": "balanceOf",
      "outputs": [
        {
          "internalType": "uint256",
          "name": "",
          "type": "uint256"
        }
      ],
      "stateMutability": "view",
      "type": "function"
    },
    {
      "inputs": [],
      "name": "decimals",
      "outputs": [
        {
          "internalType": "uint8",
          "name": "",
          "type": "uint8"
        }
      ],
      "stateMutability": "view",
      "type": "function"
    },
    {
      "inputs": [],
      "name": "name",
      "outputs": [
        {
          "internalType": "string",
          "name": "",
          "type": "string"
        }
      ],
      "stateMutability": "view",
      "type": "function"
    },
    {
      "inputs": [
        {
          "internalType": "address",
          "name": "user",
          "type": "address"
        },
        {
          "internalType": "uint256",
          "name": "amount",
          "type": "uint256"
        }
      ],
      "name": "reward",
      "outputs": [],
      "stateMutability": "nonpayable",
      "type": "function"
    },
    {
      "inputs": [],
      "name": "symbol",
      "outputs": [
        {
          "internalType": "string",
          "name": "",
          "type": "string"
        }
      ],
      "stateMutability": "view",
      "type": "function"
    },
    {
      "inputs": [],
      "name": "totalSupply",
      "outputs": [
        {
          "internalType": "uint256",
          "name": "",
          "type": "uint256"
        }
      ],
      "stateMutability": "view",
      "type": "function"
    },
    {
      "inputs": [
        {
          "internalType": "address",
          "name": "to",
          "type": "address"
        },
        {
          "internalType": "uint256",
          "name": "value",
          "type": "uint256"
        }
      ],
      "name": "transfer",
      "outputs": [
        {
          "internalType": "bool",
          "name": "",
          "type": "bool"
        }
      ],
      "stateMutability": "nonpayable",
      "type": "function"
    },
    {
      "inputs": [
        {
          "internalType": "address",
          "name": "from",
          "type": "address"
        },
        {
          "internalType": "address",
          "name": "to",
          "type": "address"
        },
        {
          "internalType": "uint256",
          "name": "value",
          "type": "uint256"
        }
      ],
      "name": "transferFrom",
      "outputs": [
        {
          "internalType": "bool",
          "name": "",
          "type": "bool"
        }
      ],
      "stateMutability": "nonpayable",
      "type": "function"
    }
  ],
  "bytecode": "0x60806040523480156200001157600080fd5b506040518060400160405280600b81526020017f526577617264546f6b656e0000000000000000000000000000000000000000008152506040518060400160405280600381526020017f525754000000000000000000000000000000000000000000000000000000000081525081600390816200008f919062000629565b508060049081620000a1919062000629565b505050620000e333620000b9620000e960201b60201c565b600a620000c79190620008a0565b620f4240620000d79190620008f1565b620000f260201b60201c565b62000a44565b60006012905090565b600073ffffffffffffffffffffffffffffffffffffffff168273ffffffffffffffffffffffffffffffffffffffff1603620001675760006040517fec442f050000000000000000000000000000000000000000000000000000000081526004016200015e919062000981565b60405180910390fd5b6200017b600083836200017f60201b60201c565b5050565b600073ffffffffffffffffffffffffffffffffffffffff168373ffffffffffffffffffffffffffffffffffffffff1603620001d5578060026000828254620001c891906200099e565b92505081905550620002ab565b60008060008573ffffffffffffffffffffffffffffffffffffffff1673ffffffffffffffffffffffffffffffffffffffff1681526020019081526020016000205490508181101562000264578381836040517fe450d38c0000000000000000000000000000000000000000000000000000000081526004016200025b93929190620009ea565b60405180910390fd5b8181036000808673ffffffffffffffffffffffffffffffffffffffff1673ffffffffffffffffffffffffffffffffffffffff16815260200190815260200160002081905550505b600073ffffffffffffffffffffffffffffffffffffffff168273ffffffffffffffffffffffffffffffffffffffff1603620002f6578060026000828254039250508190555062000343565b806000808473ffffffffffffffffffffffffffffffffffffffff1673ffffffffffffffffffffffffffffffffffffffff168152602001908152602001600020600082825401925050819055505b8173ffffffffffffffffffffffffffffffffffffffff168373ffffffffffffffffffffffffffffffffffffffff167fddf252ad1be2c89b69c2b068fc378daa952ba7f163c4a11628f55a4df523b3ef83604051620003a2919062000a27565b60405180910390a3505050565b600081519050919050565b7f4e487b7100000000000000000000000000000000000000000000000000000000600052604160045260246000fd5b7f4e487b7100000000000000000000000000000000000000000000000000000000600052602260045260246000fd5b600060028204905060018216806200043157607f821691505b602082108103620004475762000446620003e9565b5b50919050565b60008190508160005260206000209050919050565b60006020601f8301049050919050565b600082821b905092915050565b600060088302620004b17fffffffffffffffffffffffffffffffffffffffffffffffffffffffffffffffff8262000472565b620004bd868362000472565b95508019841693508086168417925050509392505050565b6000819050919050565b6000819050919050565b60006200050a62000504620004fe84620004d5565b620004df565b620004d5565b9050919050565b6000819050919050565b6200052683620004e9565b6200053e620005358262000511565b8484546200047f565b825550505050565b600090565b6200055562000546565b620005628184846200051b565b505050565b5b818110156200058a576200057e6000826200054b565b60018101905062000568565b5050565b601f821115620005d957620005a3816200044d565b620005ae8462000462565b81016020851015620005be578190505b620005d6620005cd8562000462565b83018262000567565b50505b505050565b600082821c905092915050565b6000620005fe60001984600802620005de565b1980831691505092915050565b6000620006198383620005eb565b9150826002028217905092915050565b6200063482620003af565b67ffffffffffffffff81111562000650576200064f620003ba565b5b6200065c825462000418565b620006698282856200058e565b600060209050601f831160018114620006a157600084156200068c578287015190505b6200069885826200060b565b86555062000708565b601f198416620006b1866200044d565b60005b82811015620006db57848901518255600182019150602085019450602081019050620006b4565b86831015620006fb5784890151620006f7601f891682620005eb565b8355505b6001600288020188555050505b505050505050565b7f4e487b7100000000000000000000000000000000000000000000000000000000600052601160045260246000fd5b60008160011c9050919050565b6000808291508390505b60018511156200079e5780860481111562000776576200077562000710565b5b6001851615620007865780820291505b808102905062000796856200073f565b945062000756565b94509492505050565b600082620007b957600190506200088c565b81620007c957600090506200088c565b8160018114620007e25760028114620007ed5762000823565b60019150506200088c565b60ff84111562000802576200080162000710565b5b8360020a9150848211156200081c576200081b62000710565b5b506200088c565b5060208310610133831016604e8410600b84101617156200085d5782820a90508381111562000857576200085662000710565b5b6200088c565b6200086c84848460016200074c565b9250905081840481111562000886576200088562000710565b5b81810290505b9392505050565b600060ff82169050919050565b6000620008ad82620004d5565b9150620008ba8362000893565b9250620008e97fffffffffffffffffffffffffffffffffffffffffffffffffffffffffffffffff8484620007a7565b905092915050565b6000620008fe82620004d5565b91506200090b83620004d5565b92508282026200091b81620004d5565b9150828204841483151762000935576200093462000710565b5b5092915050565b600073ffffffffffffffffffffffffffffffffffffffff82169050919050565b600062000969826200093c565b9050919050565b6200097b816200095c565b82525050565b600060208201905062000998600083018462000970565b92915050565b6000620009ab82620004d5565b9150620009b883620004d5565b9250828201905080821115620009d357620009d262000710565b5b92915050565b620009e481620004d5565b82525050565b600060608201905062000a01600083018662000970565b62000a106020830185620009d9565b62000a1f6040830184620009d9565b949350505050565b600060208201905062000a3e6000830184620009d9565b92915050565b610e8c8062000a546000396000f3fe608060405234801561001057600080fd5b506004361061009e5760003560e01c8063313ce56711610066578063313ce5671461015b57806370a082311461017957806395d89b41146101a9578063a9059cbb146101c7578063dd62ed3e146101f75761009e565b806306fdde03146100a3578063095ea7b3146100c157806318160ddd146100f157806321670f221461010f57806323b872dd1461012b575b600080fd5b6100ab610227565b6040516100b89190610ae0565b60405180910390f35b6100db60048036038101906100d69190610b9b565b6102b9565b6040516100e89190610bf6565b60405180910390f35b6100f96102dc565b6040516101069190610c20565b60405180910390f35b61012960048036038101906101249190610b9b565b6102e6565b005b61014560048036038101906101409190610c3b565b6102f5565b6040516101529190610bf6565b60405180910390f35b610163610324565b6040516101709190610caa565b60405180910390f35b610193600480360381019061018e9190610cc5565b61032d565b6040516101a09190610c20565b60405180910390f35b6101b1610375565b6040516101be9190610ae0565b60405180910390f35b6101e160048036038101906101dc9190610b9b565b610407565b6040516101ee9190610bf6565b60405180910390f35b610211600480360381019061020c9190610cf2565b61042a565b60405161021e9190610c20565b60405180910390f35b60606003805461023690610d61565b80601f016020809104026020016040519081016040528092919081815260200182805461026290610d61565b80156102af5780601f10610284576101008083540402835291602001916102af565b820191906000526020600020905b81548152906001019060200180831161029257829003601f168201915b5050505050905090565b6000806102c46104b1565b90506102d18185856104b9565b600191505092915050565b6000600254905090565b6102f13383836104cb565b5050565b6000806103006104b1565b905061030d8582856105bf565b6103188585856104cb565b60019150509392505050565b60006012905090565b60008060008373ffffffffffffffffffffffffffffffffffffffff1673ffffffffffffffffffffffffffffffffffffffff168152602001908152602001600020549050919050565b60606004805461038490610d61565b80601f01602080910402602001604051908101604052809291908181526020018280546103b090610d61565b80156103fd5780601f106103d2576101008083540402835291602001916103fd565b820191906000526020600020905b8154815290600101906020018083116103e057829003601f168201915b5050505050905090565b6000806104126104b1565b905061041f8185856104cb565b600191505092915050565b6000600160008473ffffffffffffffffffffffffffffffffffffffff1673ffffffffffffffffffffffffffffffffffffffff16815260200190815260200160002060008373ffffffffffffffffffffffffffffffffffffffff1673ffffffffffffffffffffffffffffffffffffffff16815260200190815260200160002054905092915050565b600033905090565b6104c68383836001610654565b505050565b600073ffffffffffffffffffffffffffffffffffffffff168373ffffffffffffffffffffffffffffffffffffffff160361053d5760006040517f96c6fd1e0000000000000000000000000000000000000000000000000000000081526004016105349190610da1565b60405180910390fd5b600073ffffffffffffffffffffffffffffffffffffffff168273ffffffffffffffffffffffffffffffffffffffff16036105af5760006040517fec442f050000000000000000000000000000000000000000000000000000000081526004016105a69190610da1565b60405180910390fd5b6105ba83838361082b565b505050565b60006105cb848461042a565b90507fffffffffffffffffffffffffffffffffffffffffffffffffffffffffffffffff81101561064e578181101561063e578281836040517ffb8f41b200000000000000000000000000000000000000000000000000000000815260040161063593929190610dbc565b60405180910390fd5b61064d84848484036000610654565b5b50505050565b600073ffffffffffffffffffffffffffffffffffffffff168473ffffffffffffffffffffffffffffffffffffffff16036106c65760006040517fe602df050000000000000000000000000000000000000000000000000000000081526004016106bd9190610da1565b60405180910390fd5b600073ffffffffffffffffffffffffffffffffffffffff168373ffffffffffffffffffffffffffffffffffffffff16036107385760006040517f94280d6200000000000000000000000000000000000000000000000000000000815260040161072f9190610da1565b60405180910390fd5b81600160008673ffffffffffffffffffffffffffffffffffffffff1673ffffffffffffffffffffffffffffffffffffffff16815260200190815260200160002060008573ffffffffffffffffffffffffffffffffffffffff1673ffffffffffffffffffffffffffffffffffffffff168152602001908152602001600020819055508015610825578273ffffffffffffffffffffffffffffffffffffffff168473ffffffffffffffffffffffffffffffffffffffff167f8c5be1e5ebec7d5bd14f71427d1e84f3dd0314c0f7b2291e5b200ac8c7c3b9258460405161081c9190610c20565b60405180910390a35b50505050565b600073ffffffffffffffffffffffffffffffffffffffff168373ffffffffffffffffffffffffffffffffffffffff160361087d5780600260008282546108719190610e22565b92505081905550610950565b60008060008573ffffffffffffffffffffffffffffffffffffffff1673ffffffffffffffffffffffffffffffffffffffff16815260200190815260200160002054905081811015610909578381836040517fe450d38c00000000000000000000000000000000000000000000000000000000815260040161090093929190610dbc565b60405180910390fd5b8181036000808673ffffffffffffffffffffffffffffffffffffffff1673ffffffffffffffffffffffffffffffffffffffff16815260200190815260200160002081905550505b600073ffffffffffffffffffffffffffffffffffffffff168273ffffffffffffffffffffffffffffffffffffffff160361099957806002600082825403925050819055506109e6565b806000808473ffffffffffffffffffffffffffffffffffffffff1673ffffffffffffffffffffffffffffffffffffffff168152602001908152602001600020600082825401925050819055505b8173ffffffffffffffffffffffffffffffffffffffff168373ffffffffffffffffffffffffffffffffffffffff167fddf252ad1be2c89b69c2b068fc378daa952ba7f163c4a11628f55a4df523b3ef83604051610a439190610c20565b60405180910390a3505050565b600081519050919050565b600082825260208201905092915050565b60005b83811015610a8a578082015181840152602081019050610a6f565b60008484015250505050565b6000601f19601f8301169050919050565b6000610ab282610a50565b610abc8185610a5b565b9350610acc818560208601610a6c565b610ad581610a96565b840191505092915050565b60006020820190508181036000830152610afa8184610aa7565b905092915050565b600080fd5b600073ffffffffffffffffffffffffffffffffffffffff82169050919050565b6000610b3282610b07565b9050919050565b610b4281610b27565b8114610b4d57600080fd5b50565b600081359050610b5f81610b39565b92915050565b6000819050919050565b610b7881610b65565b8114610b8357600080fd5b50565b600081359050610b9581610b6f565b92915050565b60008060408385031215610bb257610bb1610b02565b5b6000610bc085828601610b50565b9250506020610bd185828601610b86565b9150509250929050565b60008115159050919050565b610bf081610bdb565b82525050565b6000602082019050610c0b6000830184610be7565b92915050565b610c1a81610b65565b82525050565b6000602082019050610c356000830184610c11565b92915050565b600080600060608486031215610c5457610c53610b02565b5b6000610c6286828701610b50565b9350506020610c7386828701610b50565b9250506040610c8486828701610b86565b9150509250925092565b600060ff82169050919050565b610ca481610c8e565b82525050565b6000602082019050610cbf6000830184610c9b565b92915050565b600060208284031215610cdb57610cda610b02565b5b6000610ce984828501610b50565b91505092915050565b60008060408385031215610d0957610d08610b02565b5b6000610d1785828601610b50565b9250506020610d2885828601610b50565b9150509250929050565b7f4e487b7100000000000000000000000000000000000000000000000000000000600052602260045260246000fd5b60006002820490506001821680610d7957607f821691505b602082108103610d8c57610d8b610d32565b5b50919050565b610d9b81610b27565b82525050565b6000602082019050610db66000830184610d92565b92915050565b6000606082019050610dd16000830186610d92565b610dde6020830185610c11565b610deb6040830184610c11565b949350505050565b7f4e487b7100000000000000000000000000000000000000000000000000000000600052601160045260246000fd5b6000610e2d82610b65565b9150610e3883610b65565b9250828201905080821115610e5057610e4f610df3565b5b9291505056fea264697066735822122012ce1a741f6a573e36b88cb53870e847da7d7e4f5c6875f8fdd0a03e01a18d6764736f6c63430008140033",
  "linkReferences": {},
  "deployedLinkReferences": {}
}